{
  "contractName": "Todos",
  "abi": [
    {
      "constant": true,
      "inputs": [],
      "name": "owner",
      "outputs": [
        {
          "name": "",
          "type": "address"
        }
      ],
      "payable": false,
      "stateMutability": "view",
      "type": "function"
    },
    {
      "constant": true,
      "inputs": [
        {
          "name": "",
          "type": "uint256"
        }
      ],
      "name": "todos",
      "outputs": [
        {
          "name": "content",
          "type": "bytes32"
        },
        {
          "name": "completed",
          "type": "bool"
        }
      ],
      "payable": false,
      "stateMutability": "view",
      "type": "function"
    },
    {
      "inputs": [],
      "payable": false,
      "stateMutability": "nonpayable",
      "type": "constructor"
    },
    {
      "constant": true,
      "inputs": [],
      "name": "numberOfTodos",
      "outputs": [
        {
          "name": "",
          "type": "uint256"
        }
      ],
      "payable": false,
      "stateMutability": "view",
      "type": "function"
    },
    {
      "constant": true,
      "inputs": [
        {
          "name": "id",
          "type": "uint256"
        }
      ],
      "name": "getTodo",
      "outputs": [
        {
          "name": "content",
          "type": "bytes32"
        },
        {
          "name": "completed",
          "type": "bool"
        }
      ],
      "payable": false,
      "stateMutability": "view",
      "type": "function"
    },
    {
      "constant": false,
      "inputs": [
        {
          "name": "content",
          "type": "bytes32"
        }
      ],
      "name": "addTodo",
      "outputs": [],
      "payable": false,
      "stateMutability": "nonpayable",
      "type": "function"
    },
    {
      "constant": false,
      "inputs": [
        {
          "name": "id",
          "type": "uint256"
        },
        {
          "name": "content",
          "type": "bytes32"
        },
        {
          "name": "completed",
          "type": "bool"
        }
      ],
      "name": "updateTodo",
      "outputs": [],
      "payable": false,
      "stateMutability": "nonpayable",
      "type": "function"
    },
    {
      "constant": false,
      "inputs": [
        {
          "name": "id",
          "type": "uint256"
        }
      ],
      "name": "deleteTodo",
      "outputs": [],
      "payable": false,
      "stateMutability": "nonpayable",
      "type": "function"
    },
    {
      "constant": false,
      "inputs": [],
      "name": "kill",
      "outputs": [],
      "payable": false,
      "stateMutability": "nonpayable",
      "type": "function"
    }
  ],
  "bytecode": "0x608060405234801561001057600080fd5b5033600160006101000a81548173ffffffffffffffffffffffffffffffffffffffff021916908373ffffffffffffffffffffffffffffffffffffffff16021790555061063a806100616000396000f30060806040526004361061008e576000357c0100000000000000000000000000000000000000000000000000000000900463ffffffff16806341c0e1b5146100935780636e3c6738146100aa5780638da5cb5b146100d7578063b9d7bf641461012e578063bc8bc2b414610159578063da2f6460146101ad578063dd68afb6146101de578063e95069f514610232575b600080fd5b34801561009f57600080fd5b506100a8610279565b005b3480156100b657600080fd5b506100d560048036038101908080359060200190929190505050610310565b005b3480156100e357600080fd5b506100ec6103dc565b604051808273ffffffffffffffffffffffffffffffffffffffff1673ffffffffffffffffffffffffffffffffffffffff16815260200191505060405180910390f35b34801561013a57600080fd5b50610143610402565b6040518082815260200191505060405180910390f35b34801561016557600080fd5b506101846004803603810190808035906020019092919050505061040e565b604051808360001916600019168152602001821515151581526020019250505060405180910390f35b3480156101b957600080fd5b506101dc600480360381019080803560001916906020019092919050505061044e565b005b3480156101ea57600080fd5b50610209600480360381019080803590602001909291905050506104cd565b604051808360001916600019168152602001821515151581526020019250505060405180910390f35b34801561023e57600080fd5b50610277600480360381019080803590602001909291908035600019169060200190929190803515159060200190929190505050610528565b005b600160009054906101000a900473ffffffffffffffffffffffffffffffffffffffff1673ffffffffffffffffffffffffffffffffffffffff163373ffffffffffffffffffffffffffffffffffffffff161415156102d557600080fd5b600160009054906101000a900473ffffffffffffffffffffffffffffffffffffffff1673ffffffffffffffffffffffffffffffffffffffff16ff5b600080805490508210151561032457600080fd5b8190505b6001600080549050038110156103c25760006001820181548110151561034a57fe5b906000526020600020906002020160008281548110151561036757fe5b9060005260206000209060020201600082015481600001906000191690556001820160009054906101000a900460ff168160010160006101000a81548160ff0219169083151502179055509050508080600101915050610328565b60008054809190600190036103d791906105a1565b505050565b600160009054906101000a900473ffffffffffffffffffffffffffffffffffffffff1681565b60008080549050905090565b60008181548110151561041d57fe5b90600052602060002090600202016000915090508060000154908060010160009054906101000a900460ff16905082565b600060408051908101604052808360001916815260200160001515815250908060018154018082558091505090600182039060005260206000209060020201600090919290919091506000820151816000019060001916905560208201518160010160006101000a81548160ff02191690831515021790555050505050565b6000806000838154811015156104df57fe5b90600052602060002090600202016000015460008481548110151561050057fe5b906000526020600020906002020160010160009054906101000a900460ff1691509150915091565b6000805490508310151561053b57600080fd5b8160008481548110151561054b57fe5b906000526020600020906002020160000181600019169055508060008481548110151561057457fe5b906000526020600020906002020160010160006101000a81548160ff021916908315150217905550505050565b8154818355818111156105ce576002028160020283600052602060002091820191016105cd91906105d3565b5b505050565b61060b91905b80821115610607576000808201600090556001820160006101000a81549060ff0219169055506002016105d9565b5090565b905600a165627a7a72305820f4808ca5a3d7a1286c08f7371aa807ebdca92abab86a33787610ad08f70fb6950029",
  "source": "pragma solidity ^0.4.23;\n\ncontract Todos {\n  struct Todo {\n    bytes32 content;\n    bool completed;\n  }\n\n  Todo[] public todos;\n  address public owner;\n\n  constructor () public {\n    owner = msg.sender;\n  }\n\n  function numberOfTodos() public view returns (uint) {\n    return todos.length;\n  }\n\n  function getTodo(uint id) public view returns (bytes32 content, bool completed) {\n    return (todos[id].content, todos[id].completed);\n  }\n\n  function addTodo(bytes32 content) public {\n    todos.push(Todo(content, false));\n  }\n\n  function updateTodo(uint id, bytes32 content, bool completed) public {\n    require(id < todos.length);\n    todos[id].content = content;\n    todos[id].completed = completed;\n  }\n\n  function deleteTodo(uint id) public {\n    require(id < todos.length);\n    for (uint i = id; i < todos.length - 1; i++) {\n      todos[i] = todos[i+1];\n    }\n    todos.length--;\n  }\n\n  function kill() public {\n    require(msg.sender == owner);\n    selfdestruct(owner);\n  }\n}",
  "sourcePath": "/Users/dotrungkien/blockchain/eth-todos/contracts/Todos.sol",
  "compiler": {
    "name": "solc",
    "version": "0.4.24+commit.e67f0147.Emscripten.clang"
  },
  "schemaVersion": "2.0.1",
  "updatedAt": "2019-02-15T06:34:09.093Z"
}